{
	"_format": "hh-sol-artifact-1",
	"contractName": "CryptoDevs",
	"sourceName": "contracts/CryptoDevs.sol",
	"abi": [
		{
			"inputs": [
				{
					"internalType": "string",
					"name": "_baseURI",
					"type": "string"
				},
				{
					"internalType": "address",
					"name": "whitelistContract",
					"type": "address"
				}
			],
			"stateMutability": "nonpayable",
			"type": "constructor"
		},
		{
			"anonymous": false,
			"inputs": [
				{
					"indexed": true,
					"internalType": "address",
					"name": "owner",
					"type": "address"
				},
				{
					"indexed": true,
					"internalType": "address",
					"name": "approved",
					"type": "address"
				},
				{
					"indexed": true,
					"internalType": "uint256",
					"name": "tokenId",
					"type": "uint256"
				}
			],
			"name": "Approval",
			"type": "event"
		},
		{
			"anonymous": false,
			"inputs": [
				{
					"indexed": true,
					"internalType": "address",
					"name": "owner",
					"type": "address"
				},
				{
					"indexed": true,
					"internalType": "address",
					"name": "operator",
					"type": "address"
				},
				{
					"indexed": false,
					"internalType": "bool",
					"name": "approved",
					"type": "bool"
				}
			],
			"name": "ApprovalForAll",
			"type": "event"
		},
		{
			"anonymous": false,
			"inputs": [
				{
					"indexed": true,
					"internalType": "address",
					"name": "previousOwner",
					"type": "address"
				},
				{
					"indexed": true,
					"internalType": "address",
					"name": "newOwner",
					"type": "address"
				}
			],
			"name": "OwnershipTransferred",
			"type": "event"
		},
		{
			"anonymous": false,
			"inputs": [
				{
					"indexed": true,
					"internalType": "address",
					"name": "from",
					"type": "address"
				},
				{
					"indexed": true,
					"internalType": "address",
					"name": "to",
					"type": "address"
				},
				{
					"indexed": true,
					"internalType": "uint256",
					"name": "tokenId",
					"type": "uint256"
				}
			],
			"name": "Transfer",
			"type": "event"
		},
		{
			"stateMutability": "payable",
			"type": "fallback"
		},
		{
			"inputs": [],
			"name": "_paused",
			"outputs": [
				{
					"internalType": "bool",
					"name": "",
					"type": "bool"
				}
			],
			"stateMutability": "view",
			"type": "function"
		},
		{
			"inputs": [],
			"name": "_price",
			"outputs": [
				{
					"internalType": "uint256",
					"name": "",
					"type": "uint256"
				}
			],
			"stateMutability": "view",
			"type": "function"
		},
		{
			"inputs": [
				{
					"internalType": "address",
					"name": "to",
					"type": "address"
				},
				{
					"internalType": "uint256",
					"name": "tokenId",
					"type": "uint256"
				}
			],
			"name": "approve",
			"outputs": [],
			"stateMutability": "nonpayable",
			"type": "function"
		},
		{
			"inputs": [
				{
					"internalType": "address",
					"name": "owner",
					"type": "address"
				}
			],
			"name": "balanceOf",
			"outputs": [
				{
					"internalType": "uint256",
					"name": "",
					"type": "uint256"
				}
			],
			"stateMutability": "view",
			"type": "function"
		},
		{
			"inputs": [],
			"name": "contractOwner",
			"outputs": [
				{
					"internalType": "address",
					"name": "",
					"type": "address"
				}
			],
			"stateMutability": "view",
			"type": "function"
		},
		{
			"inputs": [
				{
					"internalType": "uint256",
					"name": "tokenId",
					"type": "uint256"
				}
			],
			"name": "getApproved",
			"outputs": [
				{
					"internalType": "address",
					"name": "",
					"type": "address"
				}
			],
			"stateMutability": "view",
			"type": "function"
		},
		{
			"inputs": [],
			"name": "getOwner",
			"outputs": [
				{
					"internalType": "address",
					"name": "",
					"type": "address"
				}
			],
			"stateMutability": "nonpayable",
			"type": "function"
		},
		{
			"inputs": [
				{
					"internalType": "address",
					"name": "owner",
					"type": "address"
				},
				{
					"internalType": "address",
					"name": "operator",
					"type": "address"
				}
			],
			"name": "isApprovedForAll",
			"outputs": [
				{
					"internalType": "bool",
					"name": "",
					"type": "bool"
				}
			],
			"stateMutability": "view",
			"type": "function"
		},
		{
			"inputs": [],
			"name": "maxTokenIds",
			"outputs": [
				{
					"internalType": "uint256",
					"name": "",
					"type": "uint256"
				}
			],
			"stateMutability": "view",
			"type": "function"
		},
		{
			"inputs": [],
			"name": "mint",
			"outputs": [],
			"stateMutability": "payable",
			"type": "function"
		},
		{
			"inputs": [],
			"name": "name",
			"outputs": [
				{
					"internalType": "string",
					"name": "",
					"type": "string"
				}
			],
			"stateMutability": "view",
			"type": "function"
		},
		{
			"inputs": [],
			"name": "owner",
			"outputs": [
				{
					"internalType": "address",
					"name": "",
					"type": "address"
				}
			],
			"stateMutability": "view",
			"type": "function"
		},
		{
			"inputs": [
				{
					"internalType": "uint256",
					"name": "tokenId",
					"type": "uint256"
				}
			],
			"name": "ownerOf",
			"outputs": [
				{
					"internalType": "address",
					"name": "",
					"type": "address"
				}
			],
			"stateMutability": "view",
			"type": "function"
		},
		{
			"inputs": [],
			"name": "presaleEnded",
			"outputs": [
				{
					"internalType": "uint256",
					"name": "",
					"type": "uint256"
				}
			],
			"stateMutability": "view",
			"type": "function"
		},
		{
			"inputs": [],
			"name": "presaleMint",
			"outputs": [],
			"stateMutability": "payable",
			"type": "function"
		},
		{
			"inputs": [],
			"name": "presaleStarted",
			"outputs": [
				{
					"internalType": "bool",
					"name": "",
					"type": "bool"
				}
			],
			"stateMutability": "view",
			"type": "function"
		},
		{
			"inputs": [],
			"name": "renounceOwnership",
			"outputs": [],
			"stateMutability": "nonpayable",
			"type": "function"
		},
		{
			"inputs": [
				{
					"internalType": "address",
					"name": "from",
					"type": "address"
				},
				{
					"internalType": "address",
					"name": "to",
					"type": "address"
				},
				{
					"internalType": "uint256",
					"name": "tokenId",
					"type": "uint256"
				}
			],
			"name": "safeTransferFrom",
			"outputs": [],
			"stateMutability": "nonpayable",
			"type": "function"
		},
		{
			"inputs": [
				{
					"internalType": "address",
					"name": "from",
					"type": "address"
				},
				{
					"internalType": "address",
					"name": "to",
					"type": "address"
				},
				{
					"internalType": "uint256",
					"name": "tokenId",
					"type": "uint256"
				},
				{
					"internalType": "bytes",
					"name": "data",
					"type": "bytes"
				}
			],
			"name": "safeTransferFrom",
			"outputs": [],
			"stateMutability": "nonpayable",
			"type": "function"
		},
		{
			"inputs": [
				{
					"internalType": "address",
					"name": "operator",
					"type": "address"
				},
				{
					"internalType": "bool",
					"name": "approved",
					"type": "bool"
				}
			],
			"name": "setApprovalForAll",
			"outputs": [],
			"stateMutability": "nonpayable",
			"type": "function"
		},
		{
			"inputs": [
				{
					"internalType": "bool",
					"name": "val",
					"type": "bool"
				}
			],
			"name": "setPaused",
			"outputs": [],
			"stateMutability": "nonpayable",
			"type": "function"
		},
		{
			"inputs": [],
			"name": "startPresale",
			"outputs": [],
			"stateMutability": "nonpayable",
			"type": "function"
		},
		{
			"inputs": [
				{
					"internalType": "bytes4",
					"name": "interfaceId",
					"type": "bytes4"
				}
			],
			"name": "supportsInterface",
			"outputs": [
				{
					"internalType": "bool",
					"name": "",
					"type": "bool"
				}
			],
			"stateMutability": "view",
			"type": "function"
		},
		{
			"inputs": [],
			"name": "symbol",
			"outputs": [
				{
					"internalType": "string",
					"name": "",
					"type": "string"
				}
			],
			"stateMutability": "view",
			"type": "function"
		},
		{
			"inputs": [
				{
					"internalType": "uint256",
					"name": "index",
					"type": "uint256"
				}
			],
			"name": "tokenByIndex",
			"outputs": [
				{
					"internalType": "uint256",
					"name": "",
					"type": "uint256"
				}
			],
			"stateMutability": "view",
			"type": "function"
		},
		{
			"inputs": [],
			"name": "tokenIds",
			"outputs": [
				{
					"internalType": "uint256",
					"name": "",
					"type": "uint256"
				}
			],
			"stateMutability": "view",
			"type": "function"
		},
		{
			"inputs": [
				{
					"internalType": "address",
					"name": "owner",
					"type": "address"
				},
				{
					"internalType": "uint256",
					"name": "index",
					"type": "uint256"
				}
			],
			"name": "tokenOfOwnerByIndex",
			"outputs": [
				{
					"internalType": "uint256",
					"name": "",
					"type": "uint256"
				}
			],
			"stateMutability": "view",
			"type": "function"
		},
		{
			"inputs": [
				{
					"internalType": "uint256",
					"name": "tokenId",
					"type": "uint256"
				}
			],
			"name": "tokenURI",
			"outputs": [
				{
					"internalType": "string",
					"name": "",
					"type": "string"
				}
			],
			"stateMutability": "view",
			"type": "function"
		},
		{
			"inputs": [],
			"name": "totalSupply",
			"outputs": [
				{
					"internalType": "uint256",
					"name": "",
					"type": "uint256"
				}
			],
			"stateMutability": "view",
			"type": "function"
		},
		{
			"inputs": [
				{
					"internalType": "address",
					"name": "from",
					"type": "address"
				},
				{
					"internalType": "address",
					"name": "to",
					"type": "address"
				},
				{
					"internalType": "uint256",
					"name": "tokenId",
					"type": "uint256"
				}
			],
			"name": "transferFrom",
			"outputs": [],
			"stateMutability": "nonpayable",
			"type": "function"
		},
		{
			"inputs": [
				{
					"internalType": "address",
					"name": "newOwner",
					"type": "address"
				}
			],
			"name": "transferOwnership",
			"outputs": [],
			"stateMutability": "nonpayable",
			"type": "function"
		},
		{
			"inputs": [],
			"name": "withdraw",
			"outputs": [],
			"stateMutability": "nonpayable",
			"type": "function"
		},
		{
			"stateMutability": "payable",
			"type": "receive"
		}
	],
	"bytecode": "0x6080604052662386f26fc10000600c556014600e553480156200002157600080fd5b50604051620047383803806200473883398181016040528101906200004791906200041a565b6040518060400160405280600b81526020017f43727970746f20446576730000000000000000000000000000000000000000008152506040518060400160405280600281526020017f43440000000000000000000000000000000000000000000000000000000000008152508160009081620000c49190620006cb565b508060019081620000d69190620006cb565b505050620000f9620000ed6200015460201b60201c565b6200015c60201b60201c565b81600b90816200010a9190620006cb565b5080601060006101000a81548173ffffffffffffffffffffffffffffffffffffffff021916908373ffffffffffffffffffffffffffffffffffffffff1602179055505050620007b2565b600033905090565b6000600a60009054906101000a900473ffffffffffffffffffffffffffffffffffffffff16905081600a60006101000a81548173ffffffffffffffffffffffffffffffffffffffff021916908373ffffffffffffffffffffffffffffffffffffffff1602179055508173ffffffffffffffffffffffffffffffffffffffff168173ffffffffffffffffffffffffffffffffffffffff167f8be0079c531659141344cd1fd0a4f28419497f9722a3daafe3b4186f6b6457e060405160405180910390a35050565b6000604051905090565b600080fd5b600080fd5b600080fd5b600080fd5b6000601f19601f8301169050919050565b7f4e487b7100000000000000000000000000000000000000000000000000000000600052604160045260246000fd5b6200028b8262000240565b810181811067ffffffffffffffff82111715620002ad57620002ac62000251565b5b80604052505050565b6000620002c262000222565b9050620002d0828262000280565b919050565b600067ffffffffffffffff821115620002f357620002f262000251565b5b620002fe8262000240565b9050602081019050919050565b60005b838110156200032b5780820151818401526020810190506200030e565b60008484015250505050565b60006200034e6200034884620002d5565b620002b6565b9050828152602081018484840111156200036d576200036c6200023b565b5b6200037a8482856200030b565b509392505050565b600082601f8301126200039a576200039962000236565b5b8151620003ac84826020860162000337565b91505092915050565b600073ffffffffffffffffffffffffffffffffffffffff82169050919050565b6000620003e282620003b5565b9050919050565b620003f481620003d5565b81146200040057600080fd5b50565b6000815190506200041481620003e9565b92915050565b600080604083850312156200043457620004336200022c565b5b600083015167ffffffffffffffff81111562000455576200045462000231565b5b620004638582860162000382565b9250506020620004768582860162000403565b9150509250929050565b600081519050919050565b7f4e487b7100000000000000000000000000000000000000000000000000000000600052602260045260246000fd5b60006002820490506001821680620004d357607f821691505b602082108103620004e957620004e86200048b565b5b50919050565b60008190508160005260206000209050919050565b60006020601f8301049050919050565b600082821b905092915050565b600060088302620005537fffffffffffffffffffffffffffffffffffffffffffffffffffffffffffffffff8262000514565b6200055f868362000514565b95508019841693508086168417925050509392505050565b6000819050919050565b6000819050919050565b6000620005ac620005a6620005a08462000577565b62000581565b62000577565b9050919050565b6000819050919050565b620005c8836200058b565b620005e0620005d782620005b3565b84845462000521565b825550505050565b600090565b620005f7620005e8565b62000604818484620005bd565b505050565b5b818110156200062c5762000620600082620005ed565b6001810190506200060a565b5050565b601f8211156200067b576200064581620004ef565b620006508462000504565b8101602085101562000660578190505b620006786200066f8562000504565b83018262000609565b50505b505050565b600082821c905092915050565b6000620006a06000198460080262000680565b1980831691505092915050565b6000620006bb83836200068d565b9150826002028217905092915050565b620006d68262000480565b67ffffffffffffffff811115620006f257620006f162000251565b5b620006fe8254620004ba565b6200070b82828562000630565b600060209050601f8311600181146200074357600084156200072e578287015190505b6200073a8582620006ad565b865550620007aa565b601f1984166200075386620004ef565b60005b828110156200077d5784890151825560018201915060208501945060208101905062000756565b868310156200079d578489015162000799601f8916826200068d565b8355505b6001600288020188555050505b505050505050565b613f7680620007c26000396000f3fe6080604052600436106101e75760003560e01c806359533d6c1161010257806395d89b4111610095578063ce606ee011610064578063ce606ee014610698578063e580b2b0146106c3578063e985e9c5146106ee578063f2fde38b1461072b576101ee565b806395d89b41146105de578063a22cb46514610609578063b88d4fde14610632578063c87b56dd1461065b576101ee565b8063714cff56116100d1578063714cff5614610546578063715018a614610571578063893d20e8146105885780638da5cb5b146105b3576101ee565b806359533d6c146104975780635f769621146104a15780636352211e146104cc57806370a0823114610509576101ee565b806316c61ccc1161017a5780632f745c59116101495780632f745c59146103dd5780633ccfd60b1461041a57806342842e0e146104315780634f6ccce71461045a576101ee565b806316c61ccc1461033357806318160ddd1461035e578063235b6ea11461038957806323b872dd146103b4576101ee565b8063081812fc116101b6578063081812fc1461029a578063095ea7b3146102d75780631249c58b1461030057806316c38b3c1461030a576101ee565b806301ffc9a7146101f057806304549d6f1461022d57806304c98b2b1461025857806306fdde031461026f576101ee565b366101ee57005b005b3480156101fc57600080fd5b50610217600480360381019061021291906129be565b610754565b6040516102249190612a06565b60405180910390f35b34801561023957600080fd5b506102426107ce565b60405161024f9190612a06565b60405180910390f35b34801561026457600080fd5b5061026d6107e1565b005b34801561027b57600080fd5b5061028461081a565b6040516102919190612ab1565b60405180910390f35b3480156102a657600080fd5b506102c160048036038101906102bc9190612b09565b6108ac565b6040516102ce9190612b77565b60405180910390f35b3480156102e357600080fd5b506102fe60048036038101906102f99190612bbe565b6108f2565b005b610308610a09565b005b34801561031657600080fd5b50610331600480360381019061032c9190612c2a565b610b69565b005b34801561033f57600080fd5b50610348610b8e565b6040516103559190612a06565b60405180910390f35b34801561036a57600080fd5b50610373610ba1565b6040516103809190612c66565b60405180910390f35b34801561039557600080fd5b5061039e610bae565b6040516103ab9190612c66565b60405180910390f35b3480156103c057600080fd5b506103db60048036038101906103d69190612c81565b610bb4565b005b3480156103e957600080fd5b5061040460048036038101906103ff9190612bbe565b610c14565b6040516104119190612c66565b60405180910390f35b34801561042657600080fd5b5061042f610cb9565b005b34801561043d57600080fd5b5061045860048036038101906104539190612c81565b610d83565b005b34801561046657600080fd5b50610481600480360381019061047c9190612b09565b610da3565b60405161048e9190612c66565b60405180910390f35b61049f610e14565b005b3480156104ad57600080fd5b506104b66110b8565b6040516104c39190612c66565b60405180910390f35b3480156104d857600080fd5b506104f360048036038101906104ee9190612b09565b6110be565b6040516105009190612b77565b60405180910390f35b34801561051557600080fd5b50610530600480360381019061052b9190612cd4565b61116f565b60405161053d9190612c66565b60405180910390f35b34801561055257600080fd5b5061055b611226565b6040516105689190612c66565b60405180910390f35b34801561057d57600080fd5b5061058661122c565b005b34801561059457600080fd5b5061059d611240565b6040516105aa9190612b77565b60405180910390f35b3480156105bf57600080fd5b506105c86112d6565b6040516105d59190612b77565b60405180910390f35b3480156105ea57600080fd5b506105f3611300565b6040516106009190612ab1565b60405180910390f35b34801561061557600080fd5b50610630600480360381019061062b9190612d01565b611392565b005b34801561063e57600080fd5b5061065960048036038101906106549190612e76565b6113a8565b005b34801561066757600080fd5b50610682600480360381019061067d9190612b09565b61140a565b60405161068f9190612ab1565b60405180910390f35b3480156106a457600080fd5b506106ad611472565b6040516106ba9190612b77565b60405180910390f35b3480156106cf57600080fd5b506106d8611498565b6040516106e59190612c66565b60405180910390f35b3480156106fa57600080fd5b5061071560048036038101906107109190612ef9565b61149e565b6040516107229190612a06565b60405180910390f35b34801561073757600080fd5b50610752600480360381019061074d9190612cd4565b611532565b005b60007f780e9d63000000000000000000000000000000000000000000000000000000007bffffffffffffffffffffffffffffffffffffffffffffffffffffffff1916827bffffffffffffffffffffffffffffffffffffffffffffffffffffffff191614806107c757506107c6826115b5565b5b9050919050565b601060149054906101000a900460ff1681565b6107e9611697565b6001601060146101000a81548160ff02191690831515021790555061012c426108129190612f68565b601181905550565b60606000805461082990612fcb565b80601f016020809104026020016040519081016040528092919081815260200182805461085590612fcb565b80156108a25780601f10610877576101008083540402835291602001916108a2565b820191906000526020600020905b81548152906001019060200180831161088557829003601f168201915b5050505050905090565b60006108b782611715565b6004600083815260200190815260200160002060009054906101000a900473ffffffffffffffffffffffffffffffffffffffff169050919050565b60006108fd826110be565b90508073ffffffffffffffffffffffffffffffffffffffff168373ffffffffffffffffffffffffffffffffffffffff160361096d576040517f08c379a00000000000000000000000000000000000000000000000000000000081526004016109649061306e565b60405180910390fd5b8073ffffffffffffffffffffffffffffffffffffffff1661098c611760565b73ffffffffffffffffffffffffffffffffffffffff1614806109bb57506109ba816109b5611760565b61149e565b5b6109fa576040517f08c379a00000000000000000000000000000000000000000000000000000000081526004016109f190613100565b60405180910390fd5b610a048383611768565b505050565b600d60009054906101000a900460ff1615610a59576040517f08c379a0000000000000000000000000000000000000000000000000000000008152600401610a509061316c565b60405180910390fd5b601060149054906101000a900460ff168015610a7757506011544210155b610ab6576040517f08c379a0000000000000000000000000000000000000000000000000000000008152600401610aad906131d8565b60405180910390fd5b600e54600f5410610afc576040517f08c379a0000000000000000000000000000000000000000000000000000000008152600401610af39061326a565b60405180910390fd5b600c54341015610b41576040517f08c379a0000000000000000000000000000000000000000000000000000000008152600401610b38906132d6565b60405180910390fd5b6001600f6000828254610b549190612f68565b92505081905550610b6733600f54611821565b565b610b71611697565b80600d60006101000a81548160ff02191690831515021790555050565b600d60009054906101000a900460ff1681565b6000600880549050905090565b600c5481565b610bc5610bbf611760565b8261183f565b610c04576040517f08c379a0000000000000000000000000000000000000000000000000000000008152600401610bfb90613368565b60405180910390fd5b610c0f8383836118d4565b505050565b6000610c1f8361116f565b8210610c60576040517f08c379a0000000000000000000000000000000000000000000000000000000008152600401610c57906133fa565b60405180910390fd5b600660008473ffffffffffffffffffffffffffffffffffffffff1673ffffffffffffffffffffffffffffffffffffffff168152602001908152602001600020600083815260200190815260200160002054905092915050565b610cc1611697565b6000610ccb6112d6565b9050600047905060008273ffffffffffffffffffffffffffffffffffffffff1682604051610cf89061344b565b60006040518083038185875af1925050503d8060008114610d35576040519150601f19603f3d011682016040523d82523d6000602084013e610d3a565b606091505b5050905080610d7e576040517f08c379a0000000000000000000000000000000000000000000000000000000008152600401610d75906134ac565b60405180910390fd5b505050565b610d9e838383604051806020016040528060008152506113a8565b505050565b6000610dad610ba1565b8210610dee576040517f08c379a0000000000000000000000000000000000000000000000000000000008152600401610de59061353e565b60405180910390fd5b60088281548110610e0257610e0161355e565b5b90600052602060002001549050919050565b600d60009054906101000a900460ff1615610e64576040517f08c379a0000000000000000000000000000000000000000000000000000000008152600401610e5b9061316c565b60405180910390fd5b601060149054906101000a900460ff168015610e81575060115442105b610ec0576040517f08c379a0000000000000000000000000000000000000000000000000000000008152600401610eb7906135d9565b60405180910390fd5b601060009054906101000a900473ffffffffffffffffffffffffffffffffffffffff1673ffffffffffffffffffffffffffffffffffffffff166306c933d8336040518263ffffffff1660e01b8152600401610f1b9190612b77565b602060405180830381865afa158015610f38573d6000803e3d6000fd5b505050506040513d601f19601f82011682018060405250810190610f5c919061360e565b610f9b576040517f08c379a0000000000000000000000000000000000000000000000000000000008152600401610f9290613687565b60405180910390fd5b600e54600f5410610fe1576040517f08c379a0000000000000000000000000000000000000000000000000000000008152600401610fd890613719565b60405180910390fd5b60003373ffffffffffffffffffffffffffffffffffffffff16600c546040516110099061344b565b60006040518083038185875af1925050503d8060008114611046576040519150601f19603f3d011682016040523d82523d6000602084013e61104b565b606091505b505090508061108f576040517f08c379a0000000000000000000000000000000000000000000000000000000008152600401611086906137ab565b60405180910390fd5b6001600f60008282546110a29190612f68565b925050819055506110b533600f54611821565b50565b600e5481565b6000806002600084815260200190815260200160002060009054906101000a900473ffffffffffffffffffffffffffffffffffffffff169050600073ffffffffffffffffffffffffffffffffffffffff168173ffffffffffffffffffffffffffffffffffffffff1603611166576040517f08c379a000000000000000000000000000000000000000000000000000000000815260040161115d90613817565b60405180910390fd5b80915050919050565b60008073ffffffffffffffffffffffffffffffffffffffff168273ffffffffffffffffffffffffffffffffffffffff16036111df576040517f08c379a00000000000000000000000000000000000000000000000000000000081526004016111d6906138a9565b60405180910390fd5b600360008373ffffffffffffffffffffffffffffffffffffffff1673ffffffffffffffffffffffffffffffffffffffff168152602001908152602001600020549050919050565b600f5481565b611234611697565b61123e6000611b3a565b565b600033601260006101000a81548173ffffffffffffffffffffffffffffffffffffffff021916908373ffffffffffffffffffffffffffffffffffffffff1602179055506112ae601260009054906101000a900473ffffffffffffffffffffffffffffffffffffffff16611c00565b601260009054906101000a900473ffffffffffffffffffffffffffffffffffffffff16905090565b6000600a60009054906101000a900473ffffffffffffffffffffffffffffffffffffffff16905090565b60606001805461130f90612fcb565b80601f016020809104026020016040519081016040528092919081815260200182805461133b90612fcb565b80156113885780601f1061135d57610100808354040283529160200191611388565b820191906000526020600020905b81548152906001019060200180831161136b57829003601f168201915b5050505050905090565b6113a461139d611760565b8383611c99565b5050565b6113b96113b3611760565b8361183f565b6113f8576040517f08c379a00000000000000000000000000000000000000000000000000000000081526004016113ef90613368565b60405180910390fd5b61140484848484611e05565b50505050565b606061141582611715565b600061141f611e61565b9050600081511161143f576040518060200160405280600081525061146a565b8061144984611ef3565b60405160200161145a929190613905565b6040516020818303038152906040525b915050919050565b601260009054906101000a900473ffffffffffffffffffffffffffffffffffffffff1681565b60115481565b6000600560008473ffffffffffffffffffffffffffffffffffffffff1673ffffffffffffffffffffffffffffffffffffffff16815260200190815260200160002060008373ffffffffffffffffffffffffffffffffffffffff1673ffffffffffffffffffffffffffffffffffffffff16815260200190815260200160002060009054906101000a900460ff16905092915050565b61153a611697565b600073ffffffffffffffffffffffffffffffffffffffff168173ffffffffffffffffffffffffffffffffffffffff16036115a9576040517f08c379a00000000000000000000000000000000000000000000000000000000081526004016115a09061399b565b60405180910390fd5b6115b281611b3a565b50565b60007f80ac58cd000000000000000000000000000000000000000000000000000000007bffffffffffffffffffffffffffffffffffffffffffffffffffffffff1916827bffffffffffffffffffffffffffffffffffffffffffffffffffffffff1916148061168057507f5b5e139f000000000000000000000000000000000000000000000000000000007bffffffffffffffffffffffffffffffffffffffffffffffffffffffff1916827bffffffffffffffffffffffffffffffffffffffffffffffffffffffff1916145b80611690575061168f82612053565b5b9050919050565b61169f611760565b73ffffffffffffffffffffffffffffffffffffffff166116bd6112d6565b73ffffffffffffffffffffffffffffffffffffffff1614611713576040517f08c379a000000000000000000000000000000000000000000000000000000000815260040161170a90613a07565b60405180910390fd5b565b61171e816120bd565b61175d576040517f08c379a000000000000000000000000000000000000000000000000000000000815260040161175490613817565b60405180910390fd5b50565b600033905090565b816004600083815260200190815260200160002060006101000a81548173ffffffffffffffffffffffffffffffffffffffff021916908373ffffffffffffffffffffffffffffffffffffffff160217905550808273ffffffffffffffffffffffffffffffffffffffff166117db836110be565b73ffffffffffffffffffffffffffffffffffffffff167f8c5be1e5ebec7d5bd14f71427d1e84f3dd0314c0f7b2291e5b200ac8c7c3b92560405160405180910390a45050565b61183b828260405180602001604052806000815250612129565b5050565b60008061184b836110be565b90508073ffffffffffffffffffffffffffffffffffffffff168473ffffffffffffffffffffffffffffffffffffffff16148061188d575061188c818561149e565b5b806118cb57508373ffffffffffffffffffffffffffffffffffffffff166118b3846108ac565b73ffffffffffffffffffffffffffffffffffffffff16145b91505092915050565b8273ffffffffffffffffffffffffffffffffffffffff166118f4826110be565b73ffffffffffffffffffffffffffffffffffffffff161461194a576040517f08c379a000000000000000000000000000000000000000000000000000000000815260040161194190613a99565b60405180910390fd5b600073ffffffffffffffffffffffffffffffffffffffff168273ffffffffffffffffffffffffffffffffffffffff16036119b9576040517f08c379a00000000000000000000000000000000000000000000000000000000081526004016119b090613b2b565b60405180910390fd5b6119c4838383612184565b6119cf600082611768565b6001600360008573ffffffffffffffffffffffffffffffffffffffff1673ffffffffffffffffffffffffffffffffffffffff1681526020019081526020016000206000828254611a1f9190613b4b565b925050819055506001600360008473ffffffffffffffffffffffffffffffffffffffff1673ffffffffffffffffffffffffffffffffffffffff1681526020019081526020016000206000828254611a769190612f68565b92505081905550816002600083815260200190815260200160002060006101000a81548173ffffffffffffffffffffffffffffffffffffffff021916908373ffffffffffffffffffffffffffffffffffffffff160217905550808273ffffffffffffffffffffffffffffffffffffffff168473ffffffffffffffffffffffffffffffffffffffff167fddf252ad1be2c89b69c2b068fc378daa952ba7f163c4a11628f55a4df523b3ef60405160405180910390a4611b35838383612296565b505050565b6000600a60009054906101000a900473ffffffffffffffffffffffffffffffffffffffff16905081600a60006101000a81548173ffffffffffffffffffffffffffffffffffffffff021916908373ffffffffffffffffffffffffffffffffffffffff1602179055508173ffffffffffffffffffffffffffffffffffffffff168173ffffffffffffffffffffffffffffffffffffffff167f8be0079c531659141344cd1fd0a4f28419497f9722a3daafe3b4186f6b6457e060405160405180910390a35050565b611c9681604051602401611c149190612b77565b6040516020818303038152906040527f2c2ecbc2000000000000000000000000000000000000000000000000000000007bffffffffffffffffffffffffffffffffffffffffffffffffffffffff19166020820180517bffffffffffffffffffffffffffffffffffffffffffffffffffffffff838183161783525050505061229b565b50565b8173ffffffffffffffffffffffffffffffffffffffff168373ffffffffffffffffffffffffffffffffffffffff1603611d07576040517f08c379a0000000000000000000000000000000000000000000000000000000008152600401611cfe90613bcb565b60405180910390fd5b80600560008573ffffffffffffffffffffffffffffffffffffffff1673ffffffffffffffffffffffffffffffffffffffff16815260200190815260200160002060008473ffffffffffffffffffffffffffffffffffffffff1673ffffffffffffffffffffffffffffffffffffffff16815260200190815260200160002060006101000a81548160ff0219169083151502179055508173ffffffffffffffffffffffffffffffffffffffff168373ffffffffffffffffffffffffffffffffffffffff167f17307eab39ab6107e8899845ad3d59bd9653f200f220920489ca2b5937696c3183604051611df89190612a06565b60405180910390a3505050565b611e108484846118d4565b611e1c848484846122c4565b611e5b576040517f08c379a0000000000000000000000000000000000000000000000000000000008152600401611e5290613c5d565b60405180910390fd5b50505050565b6060600b8054611e7090612fcb565b80601f0160208091040260200160405190810160405280929190818152602001828054611e9c90612fcb565b8015611ee95780601f10611ebe57610100808354040283529160200191611ee9565b820191906000526020600020905b815481529060010190602001808311611ecc57829003601f168201915b5050505050905090565b606060008203611f3a576040518060400160405280600181526020017f3000000000000000000000000000000000000000000000000000000000000000815250905061204e565b600082905060005b60008214611f6c578080611f5590613c7d565b915050600a82611f659190613cf4565b9150611f42565b60008167ffffffffffffffff811115611f8857611f87612d4b565b5b6040519080825280601f01601f191660200182016040528015611fba5781602001600182028036833780820191505090505b5090505b6000851461204757600182611fd39190613b4b565b9150600a85611fe29190613d25565b6030611fee9190612f68565b60f81b8183815181106120045761200361355e565b5b60200101907effffffffffffffffffffffffffffffffffffffffffffffffffffffffffffff1916908160001a905350600a856120409190613cf4565b9450611fbe565b8093505050505b919050565b60007f01ffc9a7000000000000000000000000000000000000000000000000000000007bffffffffffffffffffffffffffffffffffffffffffffffffffffffff1916827bffffffffffffffffffffffffffffffffffffffffffffffffffffffff1916149050919050565b60008073ffffffffffffffffffffffffffffffffffffffff166002600084815260200190815260200160002060009054906101000a900473ffffffffffffffffffffffffffffffffffffffff1673ffffffffffffffffffffffffffffffffffffffff1614159050919050565b612133838361244b565b61214060008484846122c4565b61217f576040517f08c379a000000000000000000000000000000000000000000000000000000000815260040161217690613c5d565b60405180910390fd5b505050565b61218f838383612624565b600073ffffffffffffffffffffffffffffffffffffffff168373ffffffffffffffffffffffffffffffffffffffff16036121d1576121cc81612629565b612210565b8173ffffffffffffffffffffffffffffffffffffffff168373ffffffffffffffffffffffffffffffffffffffff161461220f5761220e8382612672565b5b5b600073ffffffffffffffffffffffffffffffffffffffff168273ffffffffffffffffffffffffffffffffffffffff16036122525761224d816127df565b612291565b8273ffffffffffffffffffffffffffffffffffffffff168273ffffffffffffffffffffffffffffffffffffffff16146122905761228f82826128b0565b5b5b505050565b505050565b60008151905060006a636f6e736f6c652e6c6f679050602083016000808483855afa5050505050565b60006122e58473ffffffffffffffffffffffffffffffffffffffff1661292f565b1561243e578373ffffffffffffffffffffffffffffffffffffffff1663150b7a0261230e611760565b8786866040518563ffffffff1660e01b81526004016123309493929190613dab565b6020604051808303816000875af192505050801561236c57506040513d601f19601f820116820180604052508101906123699190613e0c565b60015b6123ee573d806000811461239c576040519150601f19603f3d011682016040523d82523d6000602084013e6123a1565b606091505b5060008151036123e6576040517f08c379a00000000000000000000000000000000000000000000000000000000081526004016123dd90613c5d565b60405180910390fd5b805181602001fd5b63150b7a0260e01b7bffffffffffffffffffffffffffffffffffffffffffffffffffffffff1916817bffffffffffffffffffffffffffffffffffffffffffffffffffffffff191614915050612443565b600190505b949350505050565b600073ffffffffffffffffffffffffffffffffffffffff168273ffffffffffffffffffffffffffffffffffffffff16036124ba576040517f08c379a00000000000000000000000000000000000000000000000000000000081526004016124b190613e85565b60405180910390fd5b6124c3816120bd565b15612503576040517f08c379a00000000000000000000000000000000000000000000000000000000081526004016124fa90613ef1565b60405180910390fd5b61250f60008383612184565b6001600360008473ffffffffffffffffffffffffffffffffffffffff1673ffffffffffffffffffffffffffffffffffffffff168152602001908152602001600020600082825461255f9190612f68565b92505081905550816002600083815260200190815260200160002060006101000a81548173ffffffffffffffffffffffffffffffffffffffff021916908373ffffffffffffffffffffffffffffffffffffffff160217905550808273ffffffffffffffffffffffffffffffffffffffff16600073ffffffffffffffffffffffffffffffffffffffff167fddf252ad1be2c89b69c2b068fc378daa952ba7f163c4a11628f55a4df523b3ef60405160405180910390a461262060008383612296565b5050565b505050565b6008805490506009600083815260200190815260200160002081905550600881908060018154018082558091505060019003906000526020600020016000909190919091505550565b6000600161267f8461116f565b6126899190613b4b565b905060006007600084815260200190815260200160002054905081811461276e576000600660008673ffffffffffffffffffffffffffffffffffffffff1673ffffffffffffffffffffffffffffffffffffffff168152602001908152602001600020600084815260200190815260200160002054905080600660008773ffffffffffffffffffffffffffffffffffffffff1673ffffffffffffffffffffffffffffffffffffffff168152602001908152602001600020600084815260200190815260200160002081905550816007600083815260200190815260200160002081905550505b6007600084815260200190815260200160002060009055600660008573ffffffffffffffffffffffffffffffffffffffff1673ffffffffffffffffffffffffffffffffffffffff16815260200190815260200160002060008381526020019081526020016000206000905550505050565b600060016008805490506127f39190613b4b565b90506000600960008481526020019081526020016000205490506000600883815481106128235761282261355e565b5b9060005260206000200154905080600883815481106128455761284461355e565b5b90600052602060002001819055508160096000838152602001908152602001600020819055506009600085815260200190815260200160002060009055600880548061289457612893613f11565b5b6001900381819060005260206000200160009055905550505050565b60006128bb8361116f565b905081600660008573ffffffffffffffffffffffffffffffffffffffff1673ffffffffffffffffffffffffffffffffffffffff168152602001908152602001600020600083815260200190815260200160002081905550806007600084815260200190815260200160002081905550505050565b6000808273ffffffffffffffffffffffffffffffffffffffff163b119050919050565b6000604051905090565b600080fd5b600080fd5b60007fffffffff0000000000000000000000000000000000000000000000000000000082169050919050565b61299b81612966565b81146129a657600080fd5b50565b6000813590506129b881612992565b92915050565b6000602082840312156129d4576129d361295c565b5b60006129e2848285016129a9565b91505092915050565b60008115159050919050565b612a00816129eb565b82525050565b6000602082019050612a1b60008301846129f7565b92915050565b600081519050919050565b600082825260208201905092915050565b60005b83811015612a5b578082015181840152602081019050612a40565b60008484015250505050565b6000601f19601f8301169050919050565b6000612a8382612a21565b612a8d8185612a2c565b9350612a9d818560208601612a3d565b612aa681612a67565b840191505092915050565b60006020820190508181036000830152612acb8184612a78565b905092915050565b6000819050919050565b612ae681612ad3565b8114612af157600080fd5b50565b600081359050612b0381612add565b92915050565b600060208284031215612b1f57612b1e61295c565b5b6000612b2d84828501612af4565b91505092915050565b600073ffffffffffffffffffffffffffffffffffffffff82169050919050565b6000612b6182612b36565b9050919050565b612b7181612b56565b82525050565b6000602082019050612b8c6000830184612b68565b92915050565b612b9b81612b56565b8114612ba657600080fd5b50565b600081359050612bb881612b92565b92915050565b60008060408385031215612bd557612bd461295c565b5b6000612be385828601612ba9565b9250506020612bf485828601612af4565b9150509250929050565b612c07816129eb565b8114612c1257600080fd5b50565b600081359050612c2481612bfe565b92915050565b600060208284031215612c4057612c3f61295c565b5b6000612c4e84828501612c15565b91505092915050565b612c6081612ad3565b82525050565b6000602082019050612c7b6000830184612c57565b92915050565b600080600060608486031215612c9a57612c9961295c565b5b6000612ca886828701612ba9565b9350506020612cb986828701612ba9565b9250506040612cca86828701612af4565b9150509250925092565b600060208284031215612cea57612ce961295c565b5b6000612cf884828501612ba9565b91505092915050565b60008060408385031215612d1857612d1761295c565b5b6000612d2685828601612ba9565b9250506020612d3785828601612c15565b9150509250929050565b600080fd5b600080fd5b7f4e487b7100000000000000000000000000000000000000000000000000000000600052604160045260246000fd5b612d8382612a67565b810181811067ffffffffffffffff82111715612da257612da1612d4b565b5b80604052505050565b6000612db5612952565b9050612dc18282612d7a565b919050565b600067ffffffffffffffff821115612de157612de0612d4b565b5b612dea82612a67565b9050602081019050919050565b82818337600083830152505050565b6000612e19612e1484612dc6565b612dab565b905082815260208101848484011115612e3557612e34612d46565b5b612e40848285612df7565b509392505050565b600082601f830112612e5d57612e5c612d41565b5b8135612e6d848260208601612e06565b91505092915050565b60008060008060808587031215612e9057612e8f61295c565b5b6000612e9e87828801612ba9565b9450506020612eaf87828801612ba9565b9350506040612ec087828801612af4565b925050606085013567ffffffffffffffff811115612ee157612ee0612961565b5b612eed87828801612e48565b91505092959194509250565b60008060408385031215612f1057612f0f61295c565b5b6000612f1e85828601612ba9565b9250506020612f2f85828601612ba9565b9150509250929050565b7f4e487b7100000000000000000000000000000000000000000000000000000000600052601160045260246000fd5b6000612f7382612ad3565b9150612f7e83612ad3565b9250828201905080821115612f9657612f95612f39565b5b92915050565b7f4e487b7100000000000000000000000000000000000000000000000000000000600052602260045260246000fd5b60006002820490506001821680612fe357607f821691505b602082108103612ff657612ff5612f9c565b5b50919050565b7f4552433732313a20617070726f76616c20746f2063757272656e74206f776e6560008201527f7200000000000000000000000000000000000000000000000000000000000000602082015250565b6000613058602183612a2c565b915061306382612ffc565b604082019050919050565b600060208201905081810360008301526130878161304b565b9050919050565b7f4552433732313a20617070726f76652063616c6c6572206973206e6f7420746f60008201527f6b656e206f776e6572206e6f7220617070726f76656420666f7220616c6c0000602082015250565b60006130ea603e83612a2c565b91506130f58261308e565b604082019050919050565b60006020820190508181036000830152613119816130dd565b9050919050565b7f436f6e74726163742063757272656e746c792070617573656400000000000000600082015250565b6000613156601983612a2c565b915061316182613120565b602082019050919050565b6000602082019050818103600083015261318581613149565b9050919050565b7f50726573616c6520686173206e6f7420656e6465642079657400000000000000600082015250565b60006131c2601983612a2c565b91506131cd8261318c565b602082019050919050565b600060208201905081810360008301526131f1816131b5565b9050919050565b7f457863656564206d6178696d756d2043727970746f204465767320737570706c60008201527f7900000000000000000000000000000000000000000000000000000000000000602082015250565b6000613254602183612a2c565b915061325f826131f8565b604082019050919050565b6000602082019050818103600083015261328381613247565b9050919050565b7f45746865722073656e74206973206e6f7420636f727265637400000000000000600082015250565b60006132c0601983612a2c565b91506132cb8261328a565b602082019050919050565b600060208201905081810360008301526132ef816132b3565b9050919050565b7f4552433732313a2063616c6c6572206973206e6f7420746f6b656e206f776e6560008201527f72206e6f7220617070726f766564000000000000000000000000000000000000602082015250565b6000613352602e83612a2c565b915061335d826132f6565b604082019050919050565b6000602082019050818103600083015261338181613345565b9050919050565b7f455243373231456e756d657261626c653a206f776e657220696e646578206f7560008201527f74206f6620626f756e6473000000000000000000000000000000000000000000602082015250565b60006133e4602b83612a2c565b91506133ef82613388565b604082019050919050565b60006020820190508181036000830152613413816133d7565b9050919050565b600081905092915050565b50565b600061343560008361341a565b915061344082613425565b600082019050919050565b600061345682613428565b9150819050919050565b7f4661696c656420746f2073656e64206574686572000000000000000000000000600082015250565b6000613496601483612a2c565b91506134a182613460565b602082019050919050565b600060208201905081810360008301526134c581613489565b9050919050565b7f455243373231456e756d657261626c653a20676c6f62616c20696e646578206f60008201527f7574206f6620626f756e64730000000000000000000000000000000000000000602082015250565b6000613528602c83612a2c565b9150613533826134cc565b604082019050919050565b600060208201905081810360008301526135578161351b565b9050919050565b7f4e487b7100000000000000000000000000000000000000000000000000000000600052603260045260246000fd5b7f50726573616c65206973206e6f742072756e6e696e6700000000000000000000600082015250565b60006135c3601683612a2c565b91506135ce8261358d565b602082019050919050565b600060208201905081810360008301526135f2816135b6565b9050919050565b60008151905061360881612bfe565b92915050565b6000602082840312156136245761362361295c565b5b6000613632848285016135f9565b91505092915050565b7f596f7520617265206e6f742077686974656c6973746564000000000000000000600082015250565b6000613671601783612a2c565b915061367c8261363b565b602082019050919050565b600060208201905081810360008301526136a081613664565b9050919050565b7f45786565646564206d6178696d756d2043727970746f2044657673207375707060008201527f6c79000000000000000000000000000000000000000000000000000000000000602082015250565b6000613703602283612a2c565b915061370e826136a7565b604082019050919050565b60006020820190508181036000830152613732816136f6565b9050919050565b7f496e73756666696369656e7420616d6f756e7420746f20636f6d706c6574652060008201527f746865207472616e73616374696f6e0000000000000000000000000000000000602082015250565b6000613795602f83612a2c565b91506137a082613739565b604082019050919050565b600060208201905081810360008301526137c481613788565b9050919050565b7f4552433732313a20696e76616c696420746f6b656e2049440000000000000000600082015250565b6000613801601883612a2c565b915061380c826137cb565b602082019050919050565b60006020820190508181036000830152613830816137f4565b9050919050565b7f4552433732313a2061646472657373207a65726f206973206e6f74206120766160008201527f6c6964206f776e65720000000000000000000000000000000000000000000000602082015250565b6000613893602983612a2c565b915061389e82613837565b604082019050919050565b600060208201905081810360008301526138c281613886565b9050919050565b600081905092915050565b60006138df82612a21565b6138e981856138c9565b93506138f9818560208601612a3d565b80840191505092915050565b600061391182856138d4565b915061391d82846138d4565b91508190509392505050565b7f4f776e61626c653a206e6577206f776e657220697320746865207a65726f206160008201527f6464726573730000000000000000000000000000000000000000000000000000602082015250565b6000613985602683612a2c565b915061399082613929565b604082019050919050565b600060208201905081810360008301526139b481613978565b9050919050565b7f4f776e61626c653a2063616c6c6572206973206e6f7420746865206f776e6572600082015250565b60006139f1602083612a2c565b91506139fc826139bb565b602082019050919050565b60006020820190508181036000830152613a20816139e4565b9050919050565b7f4552433732313a207472616e736665722066726f6d20696e636f72726563742060008201527f6f776e6572000000000000000000000000000000000000000000000000000000602082015250565b6000613a83602583612a2c565b9150613a8e82613a27565b604082019050919050565b60006020820190508181036000830152613ab281613a76565b9050919050565b7f4552433732313a207472616e7366657220746f20746865207a65726f2061646460008201527f7265737300000000000000000000000000000000000000000000000000000000602082015250565b6000613b15602483612a2c565b9150613b2082613ab9565b604082019050919050565b60006020820190508181036000830152613b4481613b08565b9050919050565b6000613b5682612ad3565b9150613b6183612ad3565b9250828203905081811115613b7957613b78612f39565b5b92915050565b7f4552433732313a20617070726f766520746f2063616c6c657200000000000000600082015250565b6000613bb5601983612a2c565b9150613bc082613b7f565b602082019050919050565b60006020820190508181036000830152613be481613ba8565b9050919050565b7f4552433732313a207472616e7366657220746f206e6f6e20455243373231526560008201527f63656976657220696d706c656d656e7465720000000000000000000000000000602082015250565b6000613c47603283612a2c565b9150613c5282613beb565b604082019050919050565b60006020820190508181036000830152613c7681613c3a565b9050919050565b6000613c8882612ad3565b91507fffffffffffffffffffffffffffffffffffffffffffffffffffffffffffffffff8203613cba57613cb9612f39565b5b600182019050919050565b7f4e487b7100000000000000000000000000000000000000000000000000000000600052601260045260246000fd5b6000613cff82612ad3565b9150613d0a83612ad3565b925082613d1a57613d19613cc5565b5b828204905092915050565b6000613d3082612ad3565b9150613d3b83612ad3565b925082613d4b57613d4a613cc5565b5b828206905092915050565b600081519050919050565b600082825260208201905092915050565b6000613d7d82613d56565b613d878185613d61565b9350613d97818560208601612a3d565b613da081612a67565b840191505092915050565b6000608082019050613dc06000830187612b68565b613dcd6020830186612b68565b613dda6040830185612c57565b8181036060830152613dec8184613d72565b905095945050505050565b600081519050613e0681612992565b92915050565b600060208284031215613e2257613e2161295c565b5b6000613e3084828501613df7565b91505092915050565b7f4552433732313a206d696e7420746f20746865207a65726f2061646472657373600082015250565b6000613e6f602083612a2c565b9150613e7a82613e39565b602082019050919050565b60006020820190508181036000830152613e9e81613e62565b9050919050565b7f4552433732313a20746f6b656e20616c7265616479206d696e74656400000000600082015250565b6000613edb601c83612a2c565b9150613ee682613ea5565b602082019050919050565b60006020820190508181036000830152613f0a81613ece565b9050919050565b7f4e487b7100000000000000000000000000000000000000000000000000000000600052603160045260246000fdfea26469706673582212206e672f6085a5f9afcd4eaa9d83db1bcc8a7b08a3b4c62626087aedade241490064736f6c63430008110033",
	"linkReferences": {},
	"deployedLinkReferences": {}
}