{
	"_format": "hh-sol-artifact-1",
	"contractName": "CryptoDevs",
	"sourceName": "contracts/CryptoDevs.sol",
	"abi": [
		{
			"inputs": [
				{
					"internalType": "string",
					"name": "_baseURI",
					"type": "string"
				},
				{
					"internalType": "address",
					"name": "whitelistContract",
					"type": "address"
				}
			],
			"stateMutability": "nonpayable",
			"type": "constructor"
		},
		{
			"anonymous": false,
			"inputs": [
				{
					"indexed": true,
					"internalType": "address",
					"name": "owner",
					"type": "address"
				},
				{
					"indexed": true,
					"internalType": "address",
					"name": "approved",
					"type": "address"
				},
				{
					"indexed": true,
					"internalType": "uint256",
					"name": "tokenId",
					"type": "uint256"
				}
			],
			"name": "Approval",
			"type": "event"
		},
		{
			"anonymous": false,
			"inputs": [
				{
					"indexed": true,
					"internalType": "address",
					"name": "owner",
					"type": "address"
				},
				{
					"indexed": true,
					"internalType": "address",
					"name": "operator",
					"type": "address"
				},
				{
					"indexed": false,
					"internalType": "bool",
					"name": "approved",
					"type": "bool"
				}
			],
			"name": "ApprovalForAll",
			"type": "event"
		},
		{
			"anonymous": false,
			"inputs": [
				{
					"indexed": true,
					"internalType": "address",
					"name": "previousOwner",
					"type": "address"
				},
				{
					"indexed": true,
					"internalType": "address",
					"name": "newOwner",
					"type": "address"
				}
			],
			"name": "OwnershipTransferred",
			"type": "event"
		},
		{
			"anonymous": false,
			"inputs": [
				{
					"indexed": true,
					"internalType": "address",
					"name": "from",
					"type": "address"
				},
				{
					"indexed": true,
					"internalType": "address",
					"name": "to",
					"type": "address"
				},
				{
					"indexed": true,
					"internalType": "uint256",
					"name": "tokenId",
					"type": "uint256"
				}
			],
			"name": "Transfer",
			"type": "event"
		},
		{
			"stateMutability": "payable",
			"type": "fallback"
		},
		{
			"inputs": [],
			"name": "_paused",
			"outputs": [
				{
					"internalType": "bool",
					"name": "",
					"type": "bool"
				}
			],
			"stateMutability": "view",
			"type": "function"
		},
		{
			"inputs": [],
			"name": "_price",
			"outputs": [
				{
					"internalType": "uint256",
					"name": "",
					"type": "uint256"
				}
			],
			"stateMutability": "view",
			"type": "function"
		},
		{
			"inputs": [
				{
					"internalType": "address",
					"name": "to",
					"type": "address"
				},
				{
					"internalType": "uint256",
					"name": "tokenId",
					"type": "uint256"
				}
			],
			"name": "approve",
			"outputs": [],
			"stateMutability": "nonpayable",
			"type": "function"
		},
		{
			"inputs": [
				{
					"internalType": "address",
					"name": "owner",
					"type": "address"
				}
			],
			"name": "balanceOf",
			"outputs": [
				{
					"internalType": "uint256",
					"name": "",
					"type": "uint256"
				}
			],
			"stateMutability": "view",
			"type": "function"
		},
		{
			"inputs": [
				{
					"internalType": "uint256",
					"name": "tokenId",
					"type": "uint256"
				}
			],
			"name": "getApproved",
			"outputs": [
				{
					"internalType": "address",
					"name": "",
					"type": "address"
				}
			],
			"stateMutability": "view",
			"type": "function"
		},
		{
			"inputs": [
				{
					"internalType": "address",
					"name": "owner",
					"type": "address"
				},
				{
					"internalType": "address",
					"name": "operator",
					"type": "address"
				}
			],
			"name": "isApprovedForAll",
			"outputs": [
				{
					"internalType": "bool",
					"name": "",
					"type": "bool"
				}
			],
			"stateMutability": "view",
			"type": "function"
		},
		{
			"inputs": [],
			"name": "maxTokenIds",
			"outputs": [
				{
					"internalType": "uint256",
					"name": "",
					"type": "uint256"
				}
			],
			"stateMutability": "view",
			"type": "function"
		},
		{
			"inputs": [],
			"name": "mint",
			"outputs": [],
			"stateMutability": "payable",
			"type": "function"
		},
		{
			"inputs": [],
			"name": "name",
			"outputs": [
				{
					"internalType": "string",
					"name": "",
					"type": "string"
				}
			],
			"stateMutability": "view",
			"type": "function"
		},
		{
			"inputs": [],
			"name": "owner",
			"outputs": [
				{
					"internalType": "address",
					"name": "",
					"type": "address"
				}
			],
			"stateMutability": "view",
			"type": "function"
		},
		{
			"inputs": [
				{
					"internalType": "uint256",
					"name": "tokenId",
					"type": "uint256"
				}
			],
			"name": "ownerOf",
			"outputs": [
				{
					"internalType": "address",
					"name": "",
					"type": "address"
				}
			],
			"stateMutability": "view",
			"type": "function"
		},
		{
			"inputs": [],
			"name": "presaleEnded",
			"outputs": [
				{
					"internalType": "uint256",
					"name": "",
					"type": "uint256"
				}
			],
			"stateMutability": "view",
			"type": "function"
		},
		{
			"inputs": [],
			"name": "presaleMint",
			"outputs": [],
			"stateMutability": "payable",
			"type": "function"
		},
		{
			"inputs": [],
			"name": "presaleStarted",
			"outputs": [
				{
					"internalType": "bool",
					"name": "",
					"type": "bool"
				}
			],
			"stateMutability": "view",
			"type": "function"
		},
		{
			"inputs": [],
			"name": "renounceOwnership",
			"outputs": [],
			"stateMutability": "nonpayable",
			"type": "function"
		},
		{
			"inputs": [
				{
					"internalType": "address",
					"name": "from",
					"type": "address"
				},
				{
					"internalType": "address",
					"name": "to",
					"type": "address"
				},
				{
					"internalType": "uint256",
					"name": "tokenId",
					"type": "uint256"
				}
			],
			"name": "safeTransferFrom",
			"outputs": [],
			"stateMutability": "nonpayable",
			"type": "function"
		},
		{
			"inputs": [
				{
					"internalType": "address",
					"name": "from",
					"type": "address"
				},
				{
					"internalType": "address",
					"name": "to",
					"type": "address"
				},
				{
					"internalType": "uint256",
					"name": "tokenId",
					"type": "uint256"
				},
				{
					"internalType": "bytes",
					"name": "data",
					"type": "bytes"
				}
			],
			"name": "safeTransferFrom",
			"outputs": [],
			"stateMutability": "nonpayable",
			"type": "function"
		},
		{
			"inputs": [
				{
					"internalType": "address",
					"name": "operator",
					"type": "address"
				},
				{
					"internalType": "bool",
					"name": "approved",
					"type": "bool"
				}
			],
			"name": "setApprovalForAll",
			"outputs": [],
			"stateMutability": "nonpayable",
			"type": "function"
		},
		{
			"inputs": [
				{
					"internalType": "bool",
					"name": "val",
					"type": "bool"
				}
			],
			"name": "setPaused",
			"outputs": [],
			"stateMutability": "nonpayable",
			"type": "function"
		},
		{
			"inputs": [],
			"name": "startPresale",
			"outputs": [],
			"stateMutability": "nonpayable",
			"type": "function"
		},
		{
			"inputs": [
				{
					"internalType": "bytes4",
					"name": "interfaceId",
					"type": "bytes4"
				}
			],
			"name": "supportsInterface",
			"outputs": [
				{
					"internalType": "bool",
					"name": "",
					"type": "bool"
				}
			],
			"stateMutability": "view",
			"type": "function"
		},
		{
			"inputs": [],
			"name": "symbol",
			"outputs": [
				{
					"internalType": "string",
					"name": "",
					"type": "string"
				}
			],
			"stateMutability": "view",
			"type": "function"
		},
		{
			"inputs": [
				{
					"internalType": "uint256",
					"name": "index",
					"type": "uint256"
				}
			],
			"name": "tokenByIndex",
			"outputs": [
				{
					"internalType": "uint256",
					"name": "",
					"type": "uint256"
				}
			],
			"stateMutability": "view",
			"type": "function"
		},
		{
			"inputs": [],
			"name": "tokenIds",
			"outputs": [
				{
					"internalType": "uint256",
					"name": "",
					"type": "uint256"
				}
			],
			"stateMutability": "view",
			"type": "function"
		},
		{
			"inputs": [
				{
					"internalType": "address",
					"name": "owner",
					"type": "address"
				},
				{
					"internalType": "uint256",
					"name": "index",
					"type": "uint256"
				}
			],
			"name": "tokenOfOwnerByIndex",
			"outputs": [
				{
					"internalType": "uint256",
					"name": "",
					"type": "uint256"
				}
			],
			"stateMutability": "view",
			"type": "function"
		},
		{
			"inputs": [
				{
					"internalType": "uint256",
					"name": "tokenId",
					"type": "uint256"
				}
			],
			"name": "tokenURI",
			"outputs": [
				{
					"internalType": "string",
					"name": "",
					"type": "string"
				}
			],
			"stateMutability": "view",
			"type": "function"
		},
		{
			"inputs": [],
			"name": "totalSupply",
			"outputs": [
				{
					"internalType": "uint256",
					"name": "",
					"type": "uint256"
				}
			],
			"stateMutability": "view",
			"type": "function"
		},
		{
			"inputs": [
				{
					"internalType": "address",
					"name": "from",
					"type": "address"
				},
				{
					"internalType": "address",
					"name": "to",
					"type": "address"
				},
				{
					"internalType": "uint256",
					"name": "tokenId",
					"type": "uint256"
				}
			],
			"name": "transferFrom",
			"outputs": [],
			"stateMutability": "nonpayable",
			"type": "function"
		},
		{
			"inputs": [
				{
					"internalType": "address",
					"name": "newOwner",
					"type": "address"
				}
			],
			"name": "transferOwnership",
			"outputs": [],
			"stateMutability": "nonpayable",
			"type": "function"
		},
		{
			"inputs": [],
			"name": "withdraw",
			"outputs": [],
			"stateMutability": "nonpayable",
			"type": "function"
		},
		{
			"stateMutability": "payable",
			"type": "receive"
		}
	],
	"bytecode": "0x6080604052662386f26fc10000600c556014600e553480156200002157600080fd5b506040516200454e3803806200454e83398181016040528101906200004791906200041a565b6040518060400160405280600b81526020017f43727970746f20446576730000000000000000000000000000000000000000008152506040518060400160405280600281526020017f43440000000000000000000000000000000000000000000000000000000000008152508160009081620000c49190620006cb565b508060019081620000d69190620006cb565b505050620000f9620000ed6200015460201b60201c565b6200015c60201b60201c565b81600b90816200010a9190620006cb565b5080601060006101000a81548173ffffffffffffffffffffffffffffffffffffffff021916908373ffffffffffffffffffffffffffffffffffffffff1602179055505050620007b2565b600033905090565b6000600a60009054906101000a900473ffffffffffffffffffffffffffffffffffffffff16905081600a60006101000a81548173ffffffffffffffffffffffffffffffffffffffff021916908373ffffffffffffffffffffffffffffffffffffffff1602179055508173ffffffffffffffffffffffffffffffffffffffff168173ffffffffffffffffffffffffffffffffffffffff167f8be0079c531659141344cd1fd0a4f28419497f9722a3daafe3b4186f6b6457e060405160405180910390a35050565b6000604051905090565b600080fd5b600080fd5b600080fd5b600080fd5b6000601f19601f8301169050919050565b7f4e487b7100000000000000000000000000000000000000000000000000000000600052604160045260246000fd5b6200028b8262000240565b810181811067ffffffffffffffff82111715620002ad57620002ac62000251565b5b80604052505050565b6000620002c262000222565b9050620002d0828262000280565b919050565b600067ffffffffffffffff821115620002f357620002f262000251565b5b620002fe8262000240565b9050602081019050919050565b60005b838110156200032b5780820151818401526020810190506200030e565b60008484015250505050565b60006200034e6200034884620002d5565b620002b6565b9050828152602081018484840111156200036d576200036c6200023b565b5b6200037a8482856200030b565b509392505050565b600082601f8301126200039a576200039962000236565b5b8151620003ac84826020860162000337565b91505092915050565b600073ffffffffffffffffffffffffffffffffffffffff82169050919050565b6000620003e282620003b5565b9050919050565b620003f481620003d5565b81146200040057600080fd5b50565b6000815190506200041481620003e9565b92915050565b600080604083850312156200043457620004336200022c565b5b600083015167ffffffffffffffff81111562000455576200045462000231565b5b620004638582860162000382565b9250506020620004768582860162000403565b9150509250929050565b600081519050919050565b7f4e487b7100000000000000000000000000000000000000000000000000000000600052602260045260246000fd5b60006002820490506001821680620004d357607f821691505b602082108103620004e957620004e86200048b565b5b50919050565b60008190508160005260206000209050919050565b60006020601f8301049050919050565b600082821b905092915050565b600060088302620005537fffffffffffffffffffffffffffffffffffffffffffffffffffffffffffffffff8262000514565b6200055f868362000514565b95508019841693508086168417925050509392505050565b6000819050919050565b6000819050919050565b6000620005ac620005a6620005a08462000577565b62000581565b62000577565b9050919050565b6000819050919050565b620005c8836200058b565b620005e0620005d782620005b3565b84845462000521565b825550505050565b600090565b620005f7620005e8565b62000604818484620005bd565b505050565b5b818110156200062c5762000620600082620005ed565b6001810190506200060a565b5050565b601f8211156200067b576200064581620004ef565b620006508462000504565b8101602085101562000660578190505b620006786200066f8562000504565b83018262000609565b50505b505050565b600082821c905092915050565b6000620006a06000198460080262000680565b1980831691505092915050565b6000620006bb83836200068d565b9150826002028217905092915050565b620006d68262000480565b67ffffffffffffffff811115620006f257620006f162000251565b5b620006fe8254620004ba565b6200070b82828562000630565b600060209050601f8311600181146200074357600084156200072e578287015190505b6200073a8582620006ad565b865550620007aa565b601f1984166200075386620004ef565b60005b828110156200077d5784890151825560018201915060208501945060208101905062000756565b868310156200079d578489015162000799601f8916826200068d565b8355505b6001600288020188555050505b505050505050565b613d8c80620007c26000396000f3fe6080604052600436106101d15760003560e01c80634f6ccce7116100f75780638da5cb5b11610095578063c87b56dd11610064578063c87b56dd1461061a578063e580b2b014610657578063e985e9c514610682578063f2fde38b146106bf576101d8565b80638da5cb5b1461057257806395d89b411461059d578063a22cb465146105c8578063b88d4fde146105f1576101d8565b80636352211e116100d15780636352211e146104b657806370a08231146104f3578063714cff5614610530578063715018a61461055b576101d8565b80634f6ccce71461044457806359533d6c146104815780635f7696211461048b576101d8565b806316c38b3c1161016f57806323b872dd1161013e57806323b872dd1461039e5780632f745c59146103c75780633ccfd60b1461040457806342842e0e1461041b576101d8565b806316c38b3c146102f457806316c61ccc1461031d57806318160ddd14610348578063235b6ea114610373576101d8565b806306fdde03116101ab57806306fdde0314610259578063081812fc14610284578063095ea7b3146102c15780631249c58b146102ea576101d8565b806301ffc9a7146101da57806304549d6f1461021757806304c98b2b14610242576101d8565b366101d857005b005b3480156101e657600080fd5b5061020160048036038101906101fc91906127d4565b6106e8565b60405161020e919061281c565b60405180910390f35b34801561022357600080fd5b5061022c610762565b604051610239919061281c565b60405180910390f35b34801561024e57600080fd5b50610257610775565b005b34801561026557600080fd5b5061026e6107ae565b60405161027b91906128c7565b60405180910390f35b34801561029057600080fd5b506102ab60048036038101906102a6919061291f565b610840565b6040516102b8919061298d565b60405180910390f35b3480156102cd57600080fd5b506102e860048036038101906102e391906129d4565b610886565b005b6102f261099d565b005b34801561030057600080fd5b5061031b60048036038101906103169190612a40565b610afd565b005b34801561032957600080fd5b50610332610b22565b60405161033f919061281c565b60405180910390f35b34801561035457600080fd5b5061035d610b35565b60405161036a9190612a7c565b60405180910390f35b34801561037f57600080fd5b50610388610b42565b6040516103959190612a7c565b60405180910390f35b3480156103aa57600080fd5b506103c560048036038101906103c09190612a97565b610b48565b005b3480156103d357600080fd5b506103ee60048036038101906103e991906129d4565b610ba8565b6040516103fb9190612a7c565b60405180910390f35b34801561041057600080fd5b50610419610c4d565b005b34801561042757600080fd5b50610442600480360381019061043d9190612a97565b610d17565b005b34801561045057600080fd5b5061046b6004803603810190610466919061291f565b610d37565b6040516104789190612a7c565b60405180910390f35b610489610da8565b005b34801561049757600080fd5b506104a061104c565b6040516104ad9190612a7c565b60405180910390f35b3480156104c257600080fd5b506104dd60048036038101906104d8919061291f565b611052565b6040516104ea919061298d565b60405180910390f35b3480156104ff57600080fd5b5061051a60048036038101906105159190612aea565b611103565b6040516105279190612a7c565b60405180910390f35b34801561053c57600080fd5b506105456111ba565b6040516105529190612a7c565b60405180910390f35b34801561056757600080fd5b506105706111c0565b005b34801561057e57600080fd5b506105876111d4565b604051610594919061298d565b60405180910390f35b3480156105a957600080fd5b506105b26111fe565b6040516105bf91906128c7565b60405180910390f35b3480156105d457600080fd5b506105ef60048036038101906105ea9190612b17565b611290565b005b3480156105fd57600080fd5b5061061860048036038101906106139190612c8c565b6112a6565b005b34801561062657600080fd5b50610641600480360381019061063c919061291f565b611308565b60405161064e91906128c7565b60405180910390f35b34801561066357600080fd5b5061066c611370565b6040516106799190612a7c565b60405180910390f35b34801561068e57600080fd5b506106a960048036038101906106a49190612d0f565b611376565b6040516106b6919061281c565b60405180910390f35b3480156106cb57600080fd5b506106e660048036038101906106e19190612aea565b61140a565b005b60007f780e9d63000000000000000000000000000000000000000000000000000000007bffffffffffffffffffffffffffffffffffffffffffffffffffffffff1916827bffffffffffffffffffffffffffffffffffffffffffffffffffffffff1916148061075b575061075a8261148d565b5b9050919050565b601060149054906101000a900460ff1681565b61077d61156f565b6001601060146101000a81548160ff02191690831515021790555061012c426107a69190612d7e565b601181905550565b6060600080546107bd90612de1565b80601f01602080910402602001604051908101604052809291908181526020018280546107e990612de1565b80156108365780601f1061080b57610100808354040283529160200191610836565b820191906000526020600020905b81548152906001019060200180831161081957829003601f168201915b5050505050905090565b600061084b826115ed565b6004600083815260200190815260200160002060009054906101000a900473ffffffffffffffffffffffffffffffffffffffff169050919050565b600061089182611052565b90508073ffffffffffffffffffffffffffffffffffffffff168373ffffffffffffffffffffffffffffffffffffffff1603610901576040517f08c379a00000000000000000000000000000000000000000000000000000000081526004016108f890612e84565b60405180910390fd5b8073ffffffffffffffffffffffffffffffffffffffff16610920611638565b73ffffffffffffffffffffffffffffffffffffffff16148061094f575061094e81610949611638565b611376565b5b61098e576040517f08c379a000000000000000000000000000000000000000000000000000000000815260040161098590612f16565b60405180910390fd5b6109988383611640565b505050565b600d60009054906101000a900460ff16156109ed576040517f08c379a00000000000000000000000000000000000000000000000000000000081526004016109e490612f82565b60405180910390fd5b601060149054906101000a900460ff168015610a0b57506011544210155b610a4a576040517f08c379a0000000000000000000000000000000000000000000000000000000008152600401610a4190612fee565b60405180910390fd5b600e54600f5410610a90576040517f08c379a0000000000000000000000000000000000000000000000000000000008152600401610a8790613080565b60405180910390fd5b600c54341015610ad5576040517f08c379a0000000000000000000000000000000000000000000000000000000008152600401610acc906130ec565b60405180910390fd5b6001600f6000828254610ae89190612d7e565b92505081905550610afb33600f546116f9565b565b610b0561156f565b80600d60006101000a81548160ff02191690831515021790555050565b600d60009054906101000a900460ff1681565b6000600880549050905090565b600c5481565b610b59610b53611638565b82611717565b610b98576040517f08c379a0000000000000000000000000000000000000000000000000000000008152600401610b8f9061317e565b60405180910390fd5b610ba38383836117ac565b505050565b6000610bb383611103565b8210610bf4576040517f08c379a0000000000000000000000000000000000000000000000000000000008152600401610beb90613210565b60405180910390fd5b600660008473ffffffffffffffffffffffffffffffffffffffff1673ffffffffffffffffffffffffffffffffffffffff168152602001908152602001600020600083815260200190815260200160002054905092915050565b610c5561156f565b6000610c5f6111d4565b9050600047905060008273ffffffffffffffffffffffffffffffffffffffff1682604051610c8c90613261565b60006040518083038185875af1925050503d8060008114610cc9576040519150601f19603f3d011682016040523d82523d6000602084013e610cce565b606091505b5050905080610d12576040517f08c379a0000000000000000000000000000000000000000000000000000000008152600401610d09906132c2565b60405180910390fd5b505050565b610d32838383604051806020016040528060008152506112a6565b505050565b6000610d41610b35565b8210610d82576040517f08c379a0000000000000000000000000000000000000000000000000000000008152600401610d7990613354565b60405180910390fd5b60088281548110610d9657610d95613374565b5b90600052602060002001549050919050565b600d60009054906101000a900460ff1615610df8576040517f08c379a0000000000000000000000000000000000000000000000000000000008152600401610def90612f82565b60405180910390fd5b601060149054906101000a900460ff168015610e15575060115442105b610e54576040517f08c379a0000000000000000000000000000000000000000000000000000000008152600401610e4b906133ef565b60405180910390fd5b601060009054906101000a900473ffffffffffffffffffffffffffffffffffffffff1673ffffffffffffffffffffffffffffffffffffffff166306c933d8336040518263ffffffff1660e01b8152600401610eaf919061298d565b602060405180830381865afa158015610ecc573d6000803e3d6000fd5b505050506040513d601f19601f82011682018060405250810190610ef09190613424565b610f2f576040517f08c379a0000000000000000000000000000000000000000000000000000000008152600401610f269061349d565b60405180910390fd5b600e54600f5410610f75576040517f08c379a0000000000000000000000000000000000000000000000000000000008152600401610f6c9061352f565b60405180910390fd5b60003373ffffffffffffffffffffffffffffffffffffffff16600c54604051610f9d90613261565b60006040518083038185875af1925050503d8060008114610fda576040519150601f19603f3d011682016040523d82523d6000602084013e610fdf565b606091505b5050905080611023576040517f08c379a000000000000000000000000000000000000000000000000000000000815260040161101a906135c1565b60405180910390fd5b6001600f60008282546110369190612d7e565b9250508190555061104933600f546116f9565b50565b600e5481565b6000806002600084815260200190815260200160002060009054906101000a900473ffffffffffffffffffffffffffffffffffffffff169050600073ffffffffffffffffffffffffffffffffffffffff168173ffffffffffffffffffffffffffffffffffffffff16036110fa576040517f08c379a00000000000000000000000000000000000000000000000000000000081526004016110f19061362d565b60405180910390fd5b80915050919050565b60008073ffffffffffffffffffffffffffffffffffffffff168273ffffffffffffffffffffffffffffffffffffffff1603611173576040517f08c379a000000000000000000000000000000000000000000000000000000000815260040161116a906136bf565b60405180910390fd5b600360008373ffffffffffffffffffffffffffffffffffffffff1673ffffffffffffffffffffffffffffffffffffffff168152602001908152602001600020549050919050565b600f5481565b6111c861156f565b6111d26000611a12565b565b6000600a60009054906101000a900473ffffffffffffffffffffffffffffffffffffffff16905090565b60606001805461120d90612de1565b80601f016020809104026020016040519081016040528092919081815260200182805461123990612de1565b80156112865780601f1061125b57610100808354040283529160200191611286565b820191906000526020600020905b81548152906001019060200180831161126957829003601f168201915b5050505050905090565b6112a261129b611638565b8383611ad8565b5050565b6112b76112b1611638565b83611717565b6112f6576040517f08c379a00000000000000000000000000000000000000000000000000000000081526004016112ed9061317e565b60405180910390fd5b61130284848484611c44565b50505050565b6060611313826115ed565b600061131d611ca0565b9050600081511161133d5760405180602001604052806000815250611368565b8061134784611d32565b60405160200161135892919061371b565b6040516020818303038152906040525b915050919050565b60115481565b6000600560008473ffffffffffffffffffffffffffffffffffffffff1673ffffffffffffffffffffffffffffffffffffffff16815260200190815260200160002060008373ffffffffffffffffffffffffffffffffffffffff1673ffffffffffffffffffffffffffffffffffffffff16815260200190815260200160002060009054906101000a900460ff16905092915050565b61141261156f565b600073ffffffffffffffffffffffffffffffffffffffff168173ffffffffffffffffffffffffffffffffffffffff1603611481576040517f08c379a0000000000000000000000000000000000000000000000000000000008152600401611478906137b1565b60405180910390fd5b61148a81611a12565b50565b60007f80ac58cd000000000000000000000000000000000000000000000000000000007bffffffffffffffffffffffffffffffffffffffffffffffffffffffff1916827bffffffffffffffffffffffffffffffffffffffffffffffffffffffff1916148061155857507f5b5e139f000000000000000000000000000000000000000000000000000000007bffffffffffffffffffffffffffffffffffffffffffffffffffffffff1916827bffffffffffffffffffffffffffffffffffffffffffffffffffffffff1916145b80611568575061156782611e92565b5b9050919050565b611577611638565b73ffffffffffffffffffffffffffffffffffffffff166115956111d4565b73ffffffffffffffffffffffffffffffffffffffff16146115eb576040517f08c379a00000000000000000000000000000000000000000000000000000000081526004016115e29061381d565b60405180910390fd5b565b6115f681611efc565b611635576040517f08c379a000000000000000000000000000000000000000000000000000000000815260040161162c9061362d565b60405180910390fd5b50565b600033905090565b816004600083815260200190815260200160002060006101000a81548173ffffffffffffffffffffffffffffffffffffffff021916908373ffffffffffffffffffffffffffffffffffffffff160217905550808273ffffffffffffffffffffffffffffffffffffffff166116b383611052565b73ffffffffffffffffffffffffffffffffffffffff167f8c5be1e5ebec7d5bd14f71427d1e84f3dd0314c0f7b2291e5b200ac8c7c3b92560405160405180910390a45050565b611713828260405180602001604052806000815250611f68565b5050565b60008061172383611052565b90508073ffffffffffffffffffffffffffffffffffffffff168473ffffffffffffffffffffffffffffffffffffffff16148061176557506117648185611376565b5b806117a357508373ffffffffffffffffffffffffffffffffffffffff1661178b84610840565b73ffffffffffffffffffffffffffffffffffffffff16145b91505092915050565b8273ffffffffffffffffffffffffffffffffffffffff166117cc82611052565b73ffffffffffffffffffffffffffffffffffffffff1614611822576040517f08c379a0000000000000000000000000000000000000000000000000000000008152600401611819906138af565b60405180910390fd5b600073ffffffffffffffffffffffffffffffffffffffff168273ffffffffffffffffffffffffffffffffffffffff1603611891576040517f08c379a000000000000000000000000000000000000000000000000000000000815260040161188890613941565b60405180910390fd5b61189c838383611fc3565b6118a7600082611640565b6001600360008573ffffffffffffffffffffffffffffffffffffffff1673ffffffffffffffffffffffffffffffffffffffff16815260200190815260200160002060008282546118f79190613961565b925050819055506001600360008473ffffffffffffffffffffffffffffffffffffffff1673ffffffffffffffffffffffffffffffffffffffff168152602001908152602001600020600082825461194e9190612d7e565b92505081905550816002600083815260200190815260200160002060006101000a81548173ffffffffffffffffffffffffffffffffffffffff021916908373ffffffffffffffffffffffffffffffffffffffff160217905550808273ffffffffffffffffffffffffffffffffffffffff168473ffffffffffffffffffffffffffffffffffffffff167fddf252ad1be2c89b69c2b068fc378daa952ba7f163c4a11628f55a4df523b3ef60405160405180910390a4611a0d8383836120d5565b505050565b6000600a60009054906101000a900473ffffffffffffffffffffffffffffffffffffffff16905081600a60006101000a81548173ffffffffffffffffffffffffffffffffffffffff021916908373ffffffffffffffffffffffffffffffffffffffff1602179055508173ffffffffffffffffffffffffffffffffffffffff168173ffffffffffffffffffffffffffffffffffffffff167f8be0079c531659141344cd1fd0a4f28419497f9722a3daafe3b4186f6b6457e060405160405180910390a35050565b8173ffffffffffffffffffffffffffffffffffffffff168373ffffffffffffffffffffffffffffffffffffffff1603611b46576040517f08c379a0000000000000000000000000000000000000000000000000000000008152600401611b3d906139e1565b60405180910390fd5b80600560008573ffffffffffffffffffffffffffffffffffffffff1673ffffffffffffffffffffffffffffffffffffffff16815260200190815260200160002060008473ffffffffffffffffffffffffffffffffffffffff1673ffffffffffffffffffffffffffffffffffffffff16815260200190815260200160002060006101000a81548160ff0219169083151502179055508173ffffffffffffffffffffffffffffffffffffffff168373ffffffffffffffffffffffffffffffffffffffff167f17307eab39ab6107e8899845ad3d59bd9653f200f220920489ca2b5937696c3183604051611c37919061281c565b60405180910390a3505050565b611c4f8484846117ac565b611c5b848484846120da565b611c9a576040517f08c379a0000000000000000000000000000000000000000000000000000000008152600401611c9190613a73565b60405180910390fd5b50505050565b6060600b8054611caf90612de1565b80601f0160208091040260200160405190810160405280929190818152602001828054611cdb90612de1565b8015611d285780601f10611cfd57610100808354040283529160200191611d28565b820191906000526020600020905b815481529060010190602001808311611d0b57829003601f168201915b5050505050905090565b606060008203611d79576040518060400160405280600181526020017f30000000000000000000000000000000000000000000000000000000000000008152509050611e8d565b600082905060005b60008214611dab578080611d9490613a93565b915050600a82611da49190613b0a565b9150611d81565b60008167ffffffffffffffff811115611dc757611dc6612b61565b5b6040519080825280601f01601f191660200182016040528015611df95781602001600182028036833780820191505090505b5090505b60008514611e8657600182611e129190613961565b9150600a85611e219190613b3b565b6030611e2d9190612d7e565b60f81b818381518110611e4357611e42613374565b5b60200101907effffffffffffffffffffffffffffffffffffffffffffffffffffffffffffff1916908160001a905350600a85611e7f9190613b0a565b9450611dfd565b8093505050505b919050565b60007f01ffc9a7000000000000000000000000000000000000000000000000000000007bffffffffffffffffffffffffffffffffffffffffffffffffffffffff1916827bffffffffffffffffffffffffffffffffffffffffffffffffffffffff1916149050919050565b60008073ffffffffffffffffffffffffffffffffffffffff166002600084815260200190815260200160002060009054906101000a900473ffffffffffffffffffffffffffffffffffffffff1673ffffffffffffffffffffffffffffffffffffffff1614159050919050565b611f728383612261565b611f7f60008484846120da565b611fbe576040517f08c379a0000000000000000000000000000000000000000000000000000000008152600401611fb590613a73565b60405180910390fd5b505050565b611fce83838361243a565b600073ffffffffffffffffffffffffffffffffffffffff168373ffffffffffffffffffffffffffffffffffffffff16036120105761200b8161243f565b61204f565b8173ffffffffffffffffffffffffffffffffffffffff168373ffffffffffffffffffffffffffffffffffffffff161461204e5761204d8382612488565b5b5b600073ffffffffffffffffffffffffffffffffffffffff168273ffffffffffffffffffffffffffffffffffffffff16036120915761208c816125f5565b6120d0565b8273ffffffffffffffffffffffffffffffffffffffff168273ffffffffffffffffffffffffffffffffffffffff16146120cf576120ce82826126c6565b5b5b505050565b505050565b60006120fb8473ffffffffffffffffffffffffffffffffffffffff16612745565b15612254578373ffffffffffffffffffffffffffffffffffffffff1663150b7a02612124611638565b8786866040518563ffffffff1660e01b81526004016121469493929190613bc1565b6020604051808303816000875af192505050801561218257506040513d601f19601f8201168201806040525081019061217f9190613c22565b60015b612204573d80600081146121b2576040519150601f19603f3d011682016040523d82523d6000602084013e6121b7565b606091505b5060008151036121fc576040517f08c379a00000000000000000000000000000000000000000000000000000000081526004016121f390613a73565b60405180910390fd5b805181602001fd5b63150b7a0260e01b7bffffffffffffffffffffffffffffffffffffffffffffffffffffffff1916817bffffffffffffffffffffffffffffffffffffffffffffffffffffffff191614915050612259565b600190505b949350505050565b600073ffffffffffffffffffffffffffffffffffffffff168273ffffffffffffffffffffffffffffffffffffffff16036122d0576040517f08c379a00000000000000000000000000000000000000000000000000000000081526004016122c790613c9b565b60405180910390fd5b6122d981611efc565b15612319576040517f08c379a000000000000000000000000000000000000000000000000000000000815260040161231090613d07565b60405180910390fd5b61232560008383611fc3565b6001600360008473ffffffffffffffffffffffffffffffffffffffff1673ffffffffffffffffffffffffffffffffffffffff16815260200190815260200160002060008282546123759190612d7e565b92505081905550816002600083815260200190815260200160002060006101000a81548173ffffffffffffffffffffffffffffffffffffffff021916908373ffffffffffffffffffffffffffffffffffffffff160217905550808273ffffffffffffffffffffffffffffffffffffffff16600073ffffffffffffffffffffffffffffffffffffffff167fddf252ad1be2c89b69c2b068fc378daa952ba7f163c4a11628f55a4df523b3ef60405160405180910390a4612436600083836120d5565b5050565b505050565b6008805490506009600083815260200190815260200160002081905550600881908060018154018082558091505060019003906000526020600020016000909190919091505550565b6000600161249584611103565b61249f9190613961565b9050600060076000848152602001908152602001600020549050818114612584576000600660008673ffffffffffffffffffffffffffffffffffffffff1673ffffffffffffffffffffffffffffffffffffffff168152602001908152602001600020600084815260200190815260200160002054905080600660008773ffffffffffffffffffffffffffffffffffffffff1673ffffffffffffffffffffffffffffffffffffffff168152602001908152602001600020600084815260200190815260200160002081905550816007600083815260200190815260200160002081905550505b6007600084815260200190815260200160002060009055600660008573ffffffffffffffffffffffffffffffffffffffff1673ffffffffffffffffffffffffffffffffffffffff16815260200190815260200160002060008381526020019081526020016000206000905550505050565b600060016008805490506126099190613961565b905060006009600084815260200190815260200160002054905060006008838154811061263957612638613374565b5b90600052602060002001549050806008838154811061265b5761265a613374565b5b9060005260206000200181905550816009600083815260200190815260200160002081905550600960008581526020019081526020016000206000905560088054806126aa576126a9613d27565b5b6001900381819060005260206000200160009055905550505050565b60006126d183611103565b905081600660008573ffffffffffffffffffffffffffffffffffffffff1673ffffffffffffffffffffffffffffffffffffffff168152602001908152602001600020600083815260200190815260200160002081905550806007600084815260200190815260200160002081905550505050565b6000808273ffffffffffffffffffffffffffffffffffffffff163b119050919050565b6000604051905090565b600080fd5b600080fd5b60007fffffffff0000000000000000000000000000000000000000000000000000000082169050919050565b6127b18161277c565b81146127bc57600080fd5b50565b6000813590506127ce816127a8565b92915050565b6000602082840312156127ea576127e9612772565b5b60006127f8848285016127bf565b91505092915050565b60008115159050919050565b61281681612801565b82525050565b6000602082019050612831600083018461280d565b92915050565b600081519050919050565b600082825260208201905092915050565b60005b83811015612871578082015181840152602081019050612856565b60008484015250505050565b6000601f19601f8301169050919050565b600061289982612837565b6128a38185612842565b93506128b3818560208601612853565b6128bc8161287d565b840191505092915050565b600060208201905081810360008301526128e1818461288e565b905092915050565b6000819050919050565b6128fc816128e9565b811461290757600080fd5b50565b600081359050612919816128f3565b92915050565b60006020828403121561293557612934612772565b5b60006129438482850161290a565b91505092915050565b600073ffffffffffffffffffffffffffffffffffffffff82169050919050565b60006129778261294c565b9050919050565b6129878161296c565b82525050565b60006020820190506129a2600083018461297e565b92915050565b6129b18161296c565b81146129bc57600080fd5b50565b6000813590506129ce816129a8565b92915050565b600080604083850312156129eb576129ea612772565b5b60006129f9858286016129bf565b9250506020612a0a8582860161290a565b9150509250929050565b612a1d81612801565b8114612a2857600080fd5b50565b600081359050612a3a81612a14565b92915050565b600060208284031215612a5657612a55612772565b5b6000612a6484828501612a2b565b91505092915050565b612a76816128e9565b82525050565b6000602082019050612a916000830184612a6d565b92915050565b600080600060608486031215612ab057612aaf612772565b5b6000612abe868287016129bf565b9350506020612acf868287016129bf565b9250506040612ae08682870161290a565b9150509250925092565b600060208284031215612b0057612aff612772565b5b6000612b0e848285016129bf565b91505092915050565b60008060408385031215612b2e57612b2d612772565b5b6000612b3c858286016129bf565b9250506020612b4d85828601612a2b565b9150509250929050565b600080fd5b600080fd5b7f4e487b7100000000000000000000000000000000000000000000000000000000600052604160045260246000fd5b612b998261287d565b810181811067ffffffffffffffff82111715612bb857612bb7612b61565b5b80604052505050565b6000612bcb612768565b9050612bd78282612b90565b919050565b600067ffffffffffffffff821115612bf757612bf6612b61565b5b612c008261287d565b9050602081019050919050565b82818337600083830152505050565b6000612c2f612c2a84612bdc565b612bc1565b905082815260208101848484011115612c4b57612c4a612b5c565b5b612c56848285612c0d565b509392505050565b600082601f830112612c7357612c72612b57565b5b8135612c83848260208601612c1c565b91505092915050565b60008060008060808587031215612ca657612ca5612772565b5b6000612cb4878288016129bf565b9450506020612cc5878288016129bf565b9350506040612cd68782880161290a565b925050606085013567ffffffffffffffff811115612cf757612cf6612777565b5b612d0387828801612c5e565b91505092959194509250565b60008060408385031215612d2657612d25612772565b5b6000612d34858286016129bf565b9250506020612d45858286016129bf565b9150509250929050565b7f4e487b7100000000000000000000000000000000000000000000000000000000600052601160045260246000fd5b6000612d89826128e9565b9150612d94836128e9565b9250828201905080821115612dac57612dab612d4f565b5b92915050565b7f4e487b7100000000000000000000000000000000000000000000000000000000600052602260045260246000fd5b60006002820490506001821680612df957607f821691505b602082108103612e0c57612e0b612db2565b5b50919050565b7f4552433732313a20617070726f76616c20746f2063757272656e74206f776e6560008201527f7200000000000000000000000000000000000000000000000000000000000000602082015250565b6000612e6e602183612842565b9150612e7982612e12565b604082019050919050565b60006020820190508181036000830152612e9d81612e61565b9050919050565b7f4552433732313a20617070726f76652063616c6c6572206973206e6f7420746f60008201527f6b656e206f776e6572206e6f7220617070726f76656420666f7220616c6c0000602082015250565b6000612f00603e83612842565b9150612f0b82612ea4565b604082019050919050565b60006020820190508181036000830152612f2f81612ef3565b9050919050565b7f436f6e74726163742063757272656e746c792070617573656400000000000000600082015250565b6000612f6c601983612842565b9150612f7782612f36565b602082019050919050565b60006020820190508181036000830152612f9b81612f5f565b9050919050565b7f50726573616c6520686173206e6f7420656e6465642079657400000000000000600082015250565b6000612fd8601983612842565b9150612fe382612fa2565b602082019050919050565b6000602082019050818103600083015261300781612fcb565b9050919050565b7f457863656564206d6178696d756d2043727970746f204465767320737570706c60008201527f7900000000000000000000000000000000000000000000000000000000000000602082015250565b600061306a602183612842565b91506130758261300e565b604082019050919050565b600060208201905081810360008301526130998161305d565b9050919050565b7f45746865722073656e74206973206e6f7420636f727265637400000000000000600082015250565b60006130d6601983612842565b91506130e1826130a0565b602082019050919050565b60006020820190508181036000830152613105816130c9565b9050919050565b7f4552433732313a2063616c6c6572206973206e6f7420746f6b656e206f776e6560008201527f72206e6f7220617070726f766564000000000000000000000000000000000000602082015250565b6000613168602e83612842565b91506131738261310c565b604082019050919050565b600060208201905081810360008301526131978161315b565b9050919050565b7f455243373231456e756d657261626c653a206f776e657220696e646578206f7560008201527f74206f6620626f756e6473000000000000000000000000000000000000000000602082015250565b60006131fa602b83612842565b91506132058261319e565b604082019050919050565b60006020820190508181036000830152613229816131ed565b9050919050565b600081905092915050565b50565b600061324b600083613230565b91506132568261323b565b600082019050919050565b600061326c8261323e565b9150819050919050565b7f4661696c656420746f2073656e64206574686572000000000000000000000000600082015250565b60006132ac601483612842565b91506132b782613276565b602082019050919050565b600060208201905081810360008301526132db8161329f565b9050919050565b7f455243373231456e756d657261626c653a20676c6f62616c20696e646578206f60008201527f7574206f6620626f756e64730000000000000000000000000000000000000000602082015250565b600061333e602c83612842565b9150613349826132e2565b604082019050919050565b6000602082019050818103600083015261336d81613331565b9050919050565b7f4e487b7100000000000000000000000000000000000000000000000000000000600052603260045260246000fd5b7f50726573616c65206973206e6f742072756e6e696e6700000000000000000000600082015250565b60006133d9601683612842565b91506133e4826133a3565b602082019050919050565b60006020820190508181036000830152613408816133cc565b9050919050565b60008151905061341e81612a14565b92915050565b60006020828403121561343a57613439612772565b5b60006134488482850161340f565b91505092915050565b7f596f7520617265206e6f742077686974656c6973746564000000000000000000600082015250565b6000613487601783612842565b915061349282613451565b602082019050919050565b600060208201905081810360008301526134b68161347a565b9050919050565b7f45786565646564206d6178696d756d2043727970746f2044657673207375707060008201527f6c79000000000000000000000000000000000000000000000000000000000000602082015250565b6000613519602283612842565b9150613524826134bd565b604082019050919050565b600060208201905081810360008301526135488161350c565b9050919050565b7f496e73756666696369656e7420616d6f756e7420746f20636f6d706c6574652060008201527f746865207472616e73616374696f6e0000000000000000000000000000000000602082015250565b60006135ab602f83612842565b91506135b68261354f565b604082019050919050565b600060208201905081810360008301526135da8161359e565b9050919050565b7f4552433732313a20696e76616c696420746f6b656e2049440000000000000000600082015250565b6000613617601883612842565b9150613622826135e1565b602082019050919050565b600060208201905081810360008301526136468161360a565b9050919050565b7f4552433732313a2061646472657373207a65726f206973206e6f74206120766160008201527f6c6964206f776e65720000000000000000000000000000000000000000000000602082015250565b60006136a9602983612842565b91506136b48261364d565b604082019050919050565b600060208201905081810360008301526136d88161369c565b9050919050565b600081905092915050565b60006136f582612837565b6136ff81856136df565b935061370f818560208601612853565b80840191505092915050565b600061372782856136ea565b915061373382846136ea565b91508190509392505050565b7f4f776e61626c653a206e6577206f776e657220697320746865207a65726f206160008201527f6464726573730000000000000000000000000000000000000000000000000000602082015250565b600061379b602683612842565b91506137a68261373f565b604082019050919050565b600060208201905081810360008301526137ca8161378e565b9050919050565b7f4f776e61626c653a2063616c6c6572206973206e6f7420746865206f776e6572600082015250565b6000613807602083612842565b9150613812826137d1565b602082019050919050565b60006020820190508181036000830152613836816137fa565b9050919050565b7f4552433732313a207472616e736665722066726f6d20696e636f72726563742060008201527f6f776e6572000000000000000000000000000000000000000000000000000000602082015250565b6000613899602583612842565b91506138a48261383d565b604082019050919050565b600060208201905081810360008301526138c88161388c565b9050919050565b7f4552433732313a207472616e7366657220746f20746865207a65726f2061646460008201527f7265737300000000000000000000000000000000000000000000000000000000602082015250565b600061392b602483612842565b9150613936826138cf565b604082019050919050565b6000602082019050818103600083015261395a8161391e565b9050919050565b600061396c826128e9565b9150613977836128e9565b925082820390508181111561398f5761398e612d4f565b5b92915050565b7f4552433732313a20617070726f766520746f2063616c6c657200000000000000600082015250565b60006139cb601983612842565b91506139d682613995565b602082019050919050565b600060208201905081810360008301526139fa816139be565b9050919050565b7f4552433732313a207472616e7366657220746f206e6f6e20455243373231526560008201527f63656976657220696d706c656d656e7465720000000000000000000000000000602082015250565b6000613a5d603283612842565b9150613a6882613a01565b604082019050919050565b60006020820190508181036000830152613a8c81613a50565b9050919050565b6000613a9e826128e9565b91507fffffffffffffffffffffffffffffffffffffffffffffffffffffffffffffffff8203613ad057613acf612d4f565b5b600182019050919050565b7f4e487b7100000000000000000000000000000000000000000000000000000000600052601260045260246000fd5b6000613b15826128e9565b9150613b20836128e9565b925082613b3057613b2f613adb565b5b828204905092915050565b6000613b46826128e9565b9150613b51836128e9565b925082613b6157613b60613adb565b5b828206905092915050565b600081519050919050565b600082825260208201905092915050565b6000613b9382613b6c565b613b9d8185613b77565b9350613bad818560208601612853565b613bb68161287d565b840191505092915050565b6000608082019050613bd6600083018761297e565b613be3602083018661297e565b613bf06040830185612a6d565b8181036060830152613c028184613b88565b905095945050505050565b600081519050613c1c816127a8565b92915050565b600060208284031215613c3857613c37612772565b5b6000613c4684828501613c0d565b91505092915050565b7f4552433732313a206d696e7420746f20746865207a65726f2061646472657373600082015250565b6000613c85602083612842565b9150613c9082613c4f565b602082019050919050565b60006020820190508181036000830152613cb481613c78565b9050919050565b7f4552433732313a20746f6b656e20616c7265616479206d696e74656400000000600082015250565b6000613cf1601c83612842565b9150613cfc82613cbb565b602082019050919050565b60006020820190508181036000830152613d2081613ce4565b9050919050565b7f4e487b7100000000000000000000000000000000000000000000000000000000600052603160045260246000fdfea2646970667358221220f8df9f439b1dbff25539c18474acde297e57a05e8c5f18a0a644ee7939f41e2364736f6c63430008110033",
	"linkReferences": {},
	"deployedLinkReferences": {}
}